:4000000000800020110000009B0000009B00000008B5054B1A6803F53F5302331A6000F001FA00F03BF800BFFA46004010B5054C237833B9044B13B10448AFF30080012382
:40004000237010BD2881FF1F0000000014140000084B10B51BB108480849AFF300800848036803B910BD074B002BFBD0BDE81040184700BF00000000141400002C81FF1FF8
:400080000881FF1F0000000008B500F071FC002000F07CFC00F0EEFBFEE7FEE708B51148114AC8B1A2F1100132C9234604391E1BAE4204D051F8046F43F8046BF7E71D4681
:4000C00052F8041C5C1B8C4203D0002443F8044BF8E701381032E4E701F05EF9FFF7D4FFFEE700BF01000000F416000008B5114A114B1A60114A136843F4007313600023E7
:40010000032B98BF0E4A4FEA830094BF52F823100C490D4A0133302B1150F1D10B4B19780B4B19700B4B1A6000F018F80A4B00221A6008BD0004FA050CED00E014ED00E0EF
:40014000000000009B0000000080FF1FBC7600400481FF1F08ED00E00081FF1F70B572B6574B01221A70A3F5F06309221A8018229A7040F6B73219249A8002229C7183F80B
:4001800080224FF0402308221A70032283F800224C4B4D4A1B780025DBB213704B4B4FF40E721A8041F2512223F8022C484B4FF4F0701B7803F0010343EA450500F0F4FB97
:4001C000013C05F0030516D0032DEFD1414B4FF480721A8007221A703F4A002448211470917002221C7003F8032C3C4A137843F00303137000E0FEE7394A062303FB042309
:40020000002118689A88013401F0F7F80A2CF3D100210846334B53F82040603324F0FF05E4B203EB4102214403EB41030132033302329A4205D012F8034C12F8026C2E55A9
:40024000F6E701301828E5D1274A28491378284843F002031370137C264C43F002031374A2F58632633A137843F0400313700B7843F010030B70204B1968016059684160BF
:4002800053F8081F016559681C4B4165E42119701B490B7843F008030B701A4B01F5AA511B780C31DBB203F007001B0908704B70154B442119700FCA07C4238070BD00BFE5
:4002C0000048004008010049A146004022420040254200400440004006400040A2430040181400005414000003500140C243004012510040B0430040A6160000DB0E01405A
:4003000022430040CF0100497658004000470A464FF6FF7370B58C1A055D082485EA030616F0010F4FEA530318BF83F4044304F1FF3414BF83F008039BB214F0FF044FEA92
:400340005505EBD1013A92B2002AE4D1DB439BB2180A40EA032080B270BD10B500232AB1013A4418A45C2344DBB2F8E7184610BD0138092842D8DFE800F0050B11171D23C5
:400380002F29353B0902C1F57F3101F570713BE00902C1F57F3101F2C13138E00902C1F57F3101F2C5312AE00902C1F57F3101F2C9312CE00902C1F57F3101F5747123E087
:4003C0000902C1F57F3101F2D1311DE00902C1F57F3101F2D63112E00902C1F57F3101F2D2310CE00902C1F57F3101F5757106E00902C1F57F3101F5767108E000210B78DD
:40040000487843EA002070470878C0B270470B784A788878000440EA02201843CB7840EA0360704710B50B4A137803F0C003802B0ED10024147002202146FFF799FF38B14B
:4004400021460220FFF794FFBDE81040FFF75EBF10BD00BFFA460040F8B5064603203146FFF786FF314605460420FFF781FF013500EB052531460320FFF77AFF0024274607
:4004800001300002A84209D210F8012B531EDBB2FD2B144498BF0127E4B2F3E701203146FFF766FF6442E4B2844204D1002F0CBF06200020F8BD0620F8BD00002DE9F047BC
:4004C000ADF51A7D804600F07FFA10B1002000F04DFB00F083FC62B6002637464FF00A09B8F1000F14BF4346FF2304A84FF4967101AA00F0ABFCB8F1000F03D009F1FF39D4
:400500005FFA89F9B9F1000F02D00028E8D101E000286ED1BDF80420062A40F291819DF81030012B40F08C819DF812309DF8134043EA0424E11D04AB2344914293F805A076
:400540001D7900F27B819B79172B40F07981211D89B219B104A8FFF7DAFE00E0084645EA0A25854240F06E814CE0002E00F06881012C40F06581002D40F052812846FFF73E
:400580006BFF002840F04E81DFF8E4E205ACBEE80F000FC4BEE80F000FC4BEE80F000FC49EE8030084E803002C4638250123291D8DF8103089B2002304A88DF81330ADF857
:4005C00006508DF811408DF81250FFF7A0FE05AB5855000A0DF11503585517220DF11603E91D5A5504A889B20DF10602962300F0FEFBB8F1000F3FF473AF002E00F02B81BF
:4006000001266DE79DF811209DF81450A2F131030B2B00F2108101A151F823F04D0600006B06000037080000B306000061070000370800006707000085070000B3060000EC
:40064000A10700000D0800006B050000002E00F0F780002C40F0F4802046FFF7FDFEB0FA80F040098DF81400CEE0002E00F0E880012C40F0E580032D00F2E280784B1B68D5
:400680001B68C3F30742954202D1C3F3072303E094BF4FF4807300238DF814301B0A8DF815300024FF238DF816308DF8174004257CE7342A12D1002E00F0C280032C40F06E
:4006C000BF80A5F140033F2B94BF10274FF480774FA800213A4600F090FE05E0002E00F0AF80022C40F2AC804FAB033CD81922460DF1170100F076FEA5F140033C443F2B11
:40070000A7B203D800F00AFA102301E04FF480739F4240F089809DF816109DF815303F2D43EA01210ED84E4B01EB05221B6892B21868C0F30F2310F0FF0F1CBF01339BB2B5
:400740009A4274D33B464FAA284600F085F9002814BF0A240024012600F02EFA00276BE0002E6DD070E0002E6AD03D19B5F5967F64DC4FABD819224605A900F033FEAFB207
:40078000002459E0002C5BD1364A02AB92E8030005AA83E8030082E803000126082505E7002E4DD0032C4BD19DF815309DF816A043EA0A2AA5F140033F2B07D82A484FEA27
:4007C0000A111022FFF7C9FD044619E00AEB0521002009024FF48072FFF7BFFD032D04460ED1BAF1FF0F0BD100210520FFF7C0FD201AC4B200210620FFF7BAFD201AC4B245
:4008000064428DF8144000240125CFE60020FFF723FE10B9154B80221A7000F0A9F90FE00C2409E00C24C1E60126002706E0012600270A2400E005240025B7E60324FBE7B9
:400840000424F9E70824F7E7B8F1000F01D1474646E60027D4E60DF51A7DBDE8F08700BF0C81FF1FB816000000800040FA460040C0FF030070B50020FFF7EEFD154E0028A2
:4008800033684FF000001C680146224614BF06250025FFF762FD73681B78181A00F0FF00984200D114B9002000F060F90A4C237803F0C003402B00D01DB100202070FFF7ED
:4008C000FDFD0A20FFF7FAFD80232370BDE8704000F04EB90C81FF1FFA460040184A137843F002031370937803F08F0343F010039370144B1A7802F0CF021A701A7842F0B7
:4009000030021A701A7802F0F0021A701A7842F00F021A70632223F8072C022223F8052C002203F8082C084A137843F00103137092F85E3B43F0010382F85E3B704700BF8E
:40094000004F00400B4F0040A3430040074A137843F001031370137C43F00103137492F85D3B43F0010382F85D3B7047A343004010B5054C23781BB9FFF7B0FF012323701C
:40098000BDE81040FFF7E2BF4481FF1F044A8001137800F0400003F0BF0303431370704710510040000000000230800803D000BF01380046FCD17047EFF3108072B67047C8
:4009C00080F31088704700BF38B500F02FF900F0B7F908B1042438E000F0ECF9072804460FD11B4B1A78900703D4012000F0DCF8F7E71A78910704D51B789B0814BF07244A
:400A0000002400F0BDF904BB00F010F900F098F90028DFD1012000F079F9072805D04FF0FF3410E02B789B07F9D40A48022100F00FF90228064DF5D12B789A0703D40120F4
:400A400000F0B2F8F8E700F09BF9204638BD00BF22470040D181FF1F4128F8B505460E4617461C460AD8411F3A298CBF002101213F2804D8B6F5807F29D805E00121812EFB
:400A800028BF0121102C22D10FB301BB00F058F9F8B92346284631463A4600F0F3F80728044611D11B4B1A781F4612F0020F03D1012000F079F8F5E71A78900702D51B7855
:400AC0009B0808D04FF0FF3400F05AF91FE001241DE004241BE0104B28461A7831465B7800F0F4F807280446EED13A78094B910703D4012000F058F8F7E71A789207E1D534
:400B00001B789B0814BF4FF0FF340024DCE72046F8BD00BF22470040D181FF1F08B5FFF74BFF0E4A137843F008031370137C43F0080313740A4BC8221A700A4A137843F090
:400B400010031370137C43F010031374064B1B789B06FBD5BDE80840FFF732BFA043004001470040AC4300400047004001BE7047024A137843F0010313707047F6460040BF
:400B800010B50446B4F5004F064B05D91868FFF70BFFA4F50044F5E758686043BDE81040FFF702BF1481FF1F024B1B7A5843FFF7FBBE00BF1481FF1F08B5FFF7FDFE00BFF9
:400BC00000BF00BF00BF00BF00BF00BF00BF00BF00BF00BF00BF00BF00BF00BF00BF064A13889BB243F0040313801388BFF36F8FBDE80840FFF7E4BE00480040054A00F028
:400C00001F00126800F1100352F8230042F82310704700BF08ED00E000F01F0000F16040490100F56440C9B20170704708B5FFF7C3FE064A137843F008031370137C43F0FA
:400C400008031374BDE80840FFF7BABEA043004070B50E464B1E451EC418A5420CD0074B1B78DB0703D40120FFF79EFFF7E7044B1B7805F8013FF0E7304670BD224700400E
:400C80002047004030B50F4C21788D0715D50E49B6250D70D5250D7002250D702478A4070DD414460870A01A80B2984203D214F8010B0870F7E7072030BD042030BD09201B
:400CC00030BD00BF224700402047004070B50D4D2C78A60712D50C4CB6262670D8262670052626702D78AD070AD42070080AC9B22070217022702370072070BD042070BDE3
:400D0000092070BD22470040204700400A4A137899070CD5094BB6211970E12119700E2119701278920704D4187007207047042070470920704700BF22470040204700408B
:400D400038B5FFF739FE0C4A147874B901250B4915700B682B400AD00B6823F001030B6000BF00BF00BF556002E0042400E01C46FFF726FE204638BD4881FF1F04000840B8
:400D800010B5FFF719FE094B00215A681970012A08D1074C226842F00102226000BF00BF00BF5960BDE81040FFF70ABE4881FF1F04000840074B1B789B0741BF064BB6227D
:400DC0001A70E02241BF1A700D2207201A7058BF04207047224700402047004008B500F043FA00F08DF9BDE8084000F0ADB92DE9F843804603EB83030E4617465C0000F090
:400E000097F898F8000000F023F9C14609F101094D4615F8010B00F0BBF8C8EB0505ADB2B542F3D364B100F083F8C30702D53E80002406E00120013CFFF7A2FEA4B2F1E749
:400E4000052400F05DF92046BDE8F8832DE9F84F0746884615460A245C430026B3B2A34213D200F029F9013658B100F025F904460120FFF785FE00F01FF9A042F5D8002667
:400E800004E00120FFF77CFEE8E7052600242C8000F012F940B300F00FF92A881FFA80F94A4493B243452B801BD24FF0000B1FFA8BF303EB040A4B451FFA8AFA06D200F004
:400EC000CDF80BF1010B07F80A00F0E74C44A4B23B1913F8013C172BDAD00120FFF750FED6E7C9EB03032B803046BDE8F88F000008B5FFF761FD0C4A137843F020031370E3
:400F000012F8033C43F0100302F8033C12F8013C43F0100302F8013CFFF752FD034B02221A6001221A6008BD9F64004000E100E010B5074B02221A600649074B0024187884
:400F40000B780C70054903F061030A60184310BD80E100E0D881FF1F6C64004000E100E010B5074B01221A600649074B002418780B780C70054903F061030A60184310BD73
:400F800080E100E0DA81FF1F6E64004000E100E070B5254A117801F0FF0311B1013BDBB200E03F23214D29788B422B46F1D0204902240C601F49204C0E78217801F0610178
:400FC00031432170167829788E4205D12178890702D51A4B187023E019780131C9B2197019783F2982BF114900240C701C7812780D4994420BD10A780132D2B20A700A78D1
:401000003F2A84BF00220A700D4A012111701B780C4ADBB2D0540C4A137843F0020313700A4B02221A6070BDD781FF1FD981FF1F80E100E06C640040D881FF1F4C64004072
:40104000D581FF1F5081FF1F8C64004000E100E0014B1870704700BF0C640040104B01221A60104B104A1978127891420FD00F4A117801F0FF0041B91A780132D2B21A7009
:401080001A783F2A03D9187001E0002111701B78074A134493F84000064B01221A60704780E100E0D381FF1FD681FF1FD481FF1F5081FF1F00E100E00D4B01221A600D4A0C
:4010C0000D4B1078197888420DD01078197888422BBF18781B78137810782ABF4030181AC01AC0B200E00020044B01221A60704780E100E0D381FF1FD681FF1F00E100E072
:401100000A4B1B7803F0080303F0FF0213B1084B1B78F5E7074901230B6007490A7007490A7007490A70074A136070476E6400405C64004080E100E0D381FF1FD681FF1F5D
:40114000D481FF1F00E100E008B5FFF735FC0E4B1A7842F003021A701A7802F0FC021A70FFF72EFC094B022209491A6000230B7008490B7008490B7008490B7803F0FD033E
:401180000B70074B1A6008BD9C64004080E100E0D781FF1FD981FF1FD581FF1F8C64004000E100E008B50B4B1B781B0702D50A4B1B78F8E7FFF700FC084B1A7842F00302DB
:4011C0001A701A7802F0FC021A70BDE80840FFF7F7BB00BF6E6400405C6400409C64004038B5174B0724174D1C7002232B6016490120FFF703FD21460120FFF70DFD012377
:401200002B6012490020FFF7F9FC21460020FFF703FDFFF7C7FF0E4B0E4A00241C7014700D4A14701C700D4B1C700D4B1C70FFF77FFEFFF795FE0B4B08221C709A7038BD69
:401240008F64004080E100E08912000019130000D581FF1FD381FF1FD681FF1FD781FF1FD981FF1F8C64004010B5064C94F8803023B9FFF7B5FF012384F88030BDE810409C
:40128000FFF736BE5081FF1F30B51B4B1B4A187811781C46884211460AD01948194A1578027802F061022A4302700278920709D422780B789A421DD1134A137803F0FD037E
:4012C000137017E0114A117801F0FF0041B91A780132D2B21A701A783F2A03D9187001E0002111701B780A4ADBB2D35C094ADBB21370CAE730BD00BFD781FF1FD981FF1FA0
:40130000D881FF1F6C6400408C640040D581FF1F5081FF1F4C64004070B5184C184B21781A7802F061020A431A701A78120723D5144A1578144AEDB211780131C9B211701E
:4013400011783F2984BF0021117010491678087886420BD108780130C0B2087008783F2884BF002008700A490120087012780949D2B28D542178D3E770BD00BF6E640040B1
:40138000DA81FF1F5C640040D681FF1FD381FF1FD481FF1F9081FF1F0E4B70B51E460E4C0025E41AA410A54204D056F8253098470135F8E700F084F9084B094C1E46E41A4F
:4013C000A4100025A54204D056F8253098470135F8E770BDCC160000CC160000CC160000D416000010B5431E0A44914204D011F8014B03F8014FF8E710BD0346024493423A
:4014000002D003F8011BFAE77047000000180000E700000000000000004F00400C00005100401000205100404000C05100401000F051004010000000014000100014014067
:40144000000800400140000A004C01400002005001402000024F0040045200400364004001010140010301400107014001090140050B0140350C0140360D01402B0E0140DE
:40148000280F01400117014001190140054001400341014002420140044301400D4401400345014001480140054C0140025001400151014001100A4B0880098030023302AD
:4014C0008C478E788F07E601E602EA04A9019901A820AB80B504B62001010208050109010C080F01120714051A081E0124082808300431013202340836013E513F014001CE
:4015000041064210440345CD460E47FB483749FF4AFF4BFF4C224EF04F0C508C511054415604580459045A245B045D085F01684069016AC06B01B802BE01D608D804DB0481
:40154000DF0106820E200F8A1608170419011D021E2627803D883E9B4401478849804A014E504F1854085501578058015AA45C205D88614862206382660467407E0287406B
:4015800089488D028E04921193109B0C9D04A144A202A408A509AE02B320C090C2F0C460CEF0D050D220D67FD8CFDE10EA02100116031D01200430023301340136043E50AA
:4015C0003F0454205604580459045B045F01810183028501870489018B088D108F0196019C01A31EA602AB01B401B51FB602BE10BF10D602D728D804D904DB24DC08DD8009
:40160000DE08DF0109080A400C080F0211021302162018051A401D201F80233027082E202F8032803D883E115B026085610467106D886E116F047E828080862089208A8010
:401640008B01C2ACC428CAA0CC08CEF0D601D84FDE90E208E810E810324036208240CC30E6808620A620E6405901D6401810A901C610EA2000020208070156206B8086089F
:4016800088018A20C00BD402DC04E201E401AF01B380EC04B41064809880B480D801E80800010E01000F00C0C000800000000D0202000202000000006900122E001E010121
:4016C000F8B500BFF8BC08BC9E46704751000000ED000000F8B500BFF8BC08BC9E4670472D000000F81600000881FF1F20000000B800000000000000000000000C140000D4
:40170000101400000000606DC0DA000038000000007E560300000000000000000000000000000000000000000000000000000000000000000000000000000000000000000F
:401740000000000000000000000000000000000000000000000000000000000000000000000000000000000000000000000000000000000000000000000000000000000069
:401780000000000000000000000000000000000000000000000000000000000000000000000000000000000000000000000000000000000000000000000000000000000029
:4017C00000000000000000000000000000000000000000000000000000000000000000000000000000000000000000000000000000000000000000000000000000000000E9
:4018000000000000000000000000000000000000000000000000000000000000000000000000000000000000000000000000000000000000000000000000000000000000A8
:020000040001F9
:400000000080002091AC0100B9A50100B9A50100EFF3108072B6704780F310887047801C800803D000BF401E0046FCD17047704700070E091C1B1215383F363124232A2D84
:4000400070777E796C6B6265484F464154535A5DE0E7EEE9FCFBF2F5D8DFD6D1C4C3CACD90979E998C8B8285A8AFA6A1B4B3BABDC7C0C9CEDBDCD5D2FFF8F1F6E3E4EDEAA0
:40008000B7B0B9BEABACA5A28F88818693949D9A2720292E3B3C35321F18111603040D0A5750595E4B4C45426F68616673747D7A898E878095929B9CB1B6BFB8ADAAA3A460
:4000C000F9FEF7F0E5E2EBECC1C6CFC8DDDAD3D4696E676075727B7C51565F584D4A4344191E171005020B0C21262F283D3A33344E49404752555C5B7671787F6A6D646320
:400100003E39303722252C2B0601080F1A1D1413AEA9A0A7B2B5BCBB9691989F8A8D8483DED9D0D7C2C5CCCBE6E1E8EFFAFDF4F31E0018011E001801C20018018800000006
:40014000000000FEFF0000000F0000CFC00080000000000030000000000F0F00C0F4340034000800010030CFCE00CF00000000000000000000BBFF0088000000000000FF14
:40018000FF0000001F00E01F0000000000000000FD02020002020000000A000000010000000200000003000000040000000600000007000000080000084F004010520040BB
:4001C000015B0040096400405900014033010140570201404A03014043040140480501404F060140490701405C080140500901404A0A0140580B0140430C0140500D01409C
:40020000350E0140370F014043140140451501404716014054170140451801403F1901403E1A0140441B01401B40014033410140204201402A4301401144014017450140F1
:400240001B460140144701401C48014022490140144C0140114D01400650014001400A6C0D40166C1940229C25402E9C002001CC081009101049110514301838191120EDF4
:4002800021FE30026080640E7801790C2F2123082CFF340A7F3C800F8378850D8A078B47050106010A080E020F04110414041704180119011D01230424042A022F023004C4
:4002C0003104320233013401350236083B023E044060410149FF4AFF4BFF4DA04F0450185407580459045A045B045C445D445F01604062C06440654066C068C06AC06CC0B2
:400300006EC0820184018A0293019701A101A801B201B301B602C060C104C5D0C652C701C81FC9FFCAFFCBFFCDAFCE0FCF04D018D608D804D904DA04DB04DC44DD94DF01F0
:40034000E040E2C0E440E540E6C0E8C0EAC0ECC0EEC000800328041005090A200B0811081208160819641A801B401C101E0121022224260C29412F80310232583501360823
:400380003A88438046804A044D0A4E185440550456A857A0584059265F4067028320C077C206C446CA89CCCFCE0AD088D224D61FD810E280E404E68202010302040406027F
:4003C00008020A040C020E04130118021A041C021E04260132063401350137023A085280580459045B045C445D405F018604870889018A188B028E019002910292089301B9
:40040000940195019702980299019A109B02A001A101A302A70CAA01AB04AC01AD10B018B103B204B402B50CB601B710B820BB02BE51BF40C032C702C810C9FFCAFFCBFF66
:40044000D420D604D804D904DA04DB04DC44DD14DF01E080E240E340E440E540E680E880EA80EC80EE80004002040320041005050702080109080B080D200E0110881202A2
:40048000144016A019401A841B081D041F342110228125202702282A2B42300132213308370238083B203E014028411050045802611062806350750182048404860488804E
:4004C000901092019520974098209A209D01A220A340A708A820AD10AF04B040B204B701C0F7C2CEC42BCA0FCC87CE86D006D601D80FE002EA48EC01EE0C050906010704DE
:400500000A020C01110413081402150D18041B101E012204231029022E023001310C320233013404351037023E113F5040054740482049FF4AFF4BFF5608580B590B5A0820
:400540005B045C225D125F0160106134621063BC81018202850189028A028D02930196019B01A102AF04B102B301B402B601B704BE10D405D804D904DB04DC22DD20DF0141
:40058000002801800402060408A009040A100F101202130119141A101B011E0920A0210422A22420254027802B882E022F01302031043202371139083C443E214802500209
:4005C00058405D015E085F80624078027B01862087048A108B02984099609D109E40A404A840AA02AB02AD08AE40AF10B008B120B280B640C057C227C409CA95CCA7CEF219
:40060000D208D6D8D808DE09E2E0E402EA17EE0400080102020403010520071009010B020C200D800E100F4010C111081202130414021540160117801D041F0822C023C007
:40064000245025C026A028042AC82D102F2030803240333F3580363F3740388039083E403F045608580459045B045C995D905F01806282948304850289028F0194A39654C8
:4006800098D59A289B089C229E189F02AD02B0C0B108B203B301B430B504B60CB702BA80D608D80BD904DB04DC92DD10DF01010204810A160F60144015281608188119127E
:4006C0001A161B181D811E201F4021142248234027162A802D802E082F4030403190348036883701388139283C043E813F5059405D406301780182408D018F049020924125
:4007000094469503971799609CA29D809E269F13A050A144A424A610A788AC02AD01B280B640C098C237C470CAD8CCDCCEFFD618D808DE01E008E204E402E670E801EE841B
:400740000202030104010901140218012F01310132013402380A39A03E113F01400449FF4AFF4BFF4C024D204EF8580E59045A0E5C775D075F01624863AD64C066C0802038
:400780008301840C8610871F880789038A388B1C8C148D0A8E088F049014911F92089506963A9708980C9A109B1D9D1F9E02A03FA110A240A506A602A708A8C0AB01AC383F
:4007C000AD0AAE81AF04B11FB4FFBE10BF01C004C501C640C705C81BC9FFCAFFCBFFCC03CD20CEF7D804D904DA0FDB04DD07DF01E248E3ADE4C0E6C0019003A00408068025
:4008000009800A280B400C200E1010821218130419101D061F1022022440266029802A102BA02F01308231083214382039143A023B403E103F014182420245024810490222
:400840005024688269967A407E208208840689028C0192209345946095979730982099809A029B299D079E249F40A041A108A3A0A492A504A622AB08AC03AE04B340C03F36
:40088000C26FC40FCA1FCC0FCEAFD081DE41E620E881EA02EC01EECE015C03010504074A09100A030B060D480F121160161C170318201B201E1F201C2201237F2404260A51
:4008C000271C28102A062C082E123020321F331F35603E0156025720580459045B245C445D805E085F3189019101A201B301B601B908C003C104C230C401C50DC6EBC7FC28
:40090000C83DC9FFCAFFCBFFCC22CEF0CF0CD08CD110D441D604D804D90EDA24DB04DC78DD18DF31E840E901EAC0EB010308085009040A880B4010821114150118801B092D
:400940001C022004212022082604284029012A043120320A3502382039863C2044284510464047444C20554056195C485D20624063026520661067A0684069406A106B29DE
:4009800078127C027E20811083018A0892A0930594A495C69618971099809A029B049C019D059E299F20A108A3A0A460A540A604A940AA01AB20AC40AE48AF08B020B640E2
:4009C000C002C207C41FCA03CC87CE2FD0D0D670D8C8DEC5E240E402EA28EE200004020106010702080309010D0110011206130219011A0228032F013007330235013A0234
:400A00003F10406441024502480149FF4AFF4BFF5608580459045A045B045C445D145F01608062406340810F831089098B248D038E028F28910292049608970C9B30A10199
:400A4000A33EA70CA904AA01AB23B004B202B401B53FB608D608D804D904DB04DC46DD90DF01004004040521080A0D020F0812041504161017101AA01BA01D0222202504E7
:400A8000271429052A102D4030083102322035013720382039823CA03D083E10450247104D204E084F08584159105B085E80604A6204670181108220844088108C409240BA
:400AC0009304942095869608971099809A029D019E20A008A108A208A540A604AB0FAD01AE80B080C071C25CC442CA17CCA7CE7DD0A0D220D61FD81FE002E401E68CE80483
:400B0000EA0103020B04170118021E012E02300231043302350136013E015608580459045B045C665D905F0182FF863F870288308A8392C09301962A97019A159C0C9EB0F1
:400B4000A03FA240A403A68CA815AA2AAB04AE3FAF04B0FFB104B301B702BF01D27FD618D804D904DB04DC44DD40DF0104200501062009800A080D400E480F1011801546DD
:400B8000172019801B021E4021082384244026882E402F083104350136083A113F0846024780588259105B045C406184621167026C086D416F20748076087720830486084B
:400BC00088828B208D10C070C2F3C4F1CA30CCC2CE45D61FD81FE280E68005040601084009040A200C100E081421164017011C021D041E0524042602270228092A102B04E1
:400C000030013301347E3504370238203E105608580459045B045C225D905F018208840887048A068B028C018D029008910494029502960498019E019F08A006A104A606A0
:400C4000A704AA01AB02AF01B002B102B204B304B401B501B608B708D804D904DC22DF0100A002080320052006600701084409C80C020E010F1410101138131014401508B6
:400C80001608171019201A801B201E041F89218C230824142741281029202DA02E093180320834043680370139183C043DA03F045B808240860488208B088C108F819201B7
:400CC000940499809A609B109F49A052A114A280A420A780A820C0F7C2F5C476CAF6CCDACE76D608E274E404EE0601010501060109020D04130C17081B011C011D012102F5
:400D00002201271029082A012F043102320133013510370C4050410245D04712483A49FF4AFF4BFF4DA04F04501852805608580459045A045B045C225D225F01604062C09D
:400D40006440654066C068C06AC06CC06EC08B2C8C0195139D259F1AA801AD06AF39B10CB310B520B601B703BF11D608D80AD90ADB04DC22DD20DF01018004040E011310FF
:400D8000171119801E102109228023142462251029802E062F09310832803440350937103B203C043D803E214440460447014C014D0154025626570859205A405C80600A9B
:400DC000640167027501764078088210834088C08A048B088C118D088F019241932194469503971699209B109C239D809E269F01A050A144A420A680A780B004B310B4108E
:400E0000B540C021C280C452CAF8CCFACEF4D020D210D61CD81CDE02E020E6C0E845EE40033C058006040B800D020F04112013021502171019021A011B081E021F012302E4
:400E40002604274029802F403004313E320233403401350137803E013F455608580459045B045C615D105F018218840185018612875289048B118D028E1F8F149207931838
:400E8000970799609D079F28A007A208A37FA804AA11AC02AE14B01FB11FB360D608D804D904DB04DC44DD90DF0101060302040808020C200F0110821110170419021D01EC
:400EC0001E181F02210222082588274429012D812F24308431123680372939943C965AA05D406280668067038250850289028C2091D5940296109712980699109B299D0112
:400F00009EA09F40A0C3A608A820A944AA04B101C02DC2C8C42BCAF1CCFFCEFED61CD818E002E410E605EA200220034007200B080F041201152517DA1A0C1B111C241E1257
:400F40001F0221902202234A261028092A362F80300733E034383503371C5608580459045B045C775D905F018404860987028A028B029301940896059B049C0D9E029F01B5
:400F8000A102A304AB02B20CB306B403B701BA20BB08BF40D25FD610D80DD90DDB04DC77DD40DF01000105100620084009800A480D8810A812081A481B011C041D181F04EB
:400FC0002001216423102412272028402B012C402F043008312032403681372039983A023C043E205B4068A069106A806C046E066F0272027408758076207E088280836271
:4010000087028A04941E97189D809E20A180A720A908AA04AD80C068C2ABC40ECAA9CCBECE6FD608DE20E008E631E8011340174818011B011F20320837883B423D44432004
:40104000548058105D806080660485208A048B10C4E0C6D0CCE0CEF0D010D4C0D620D8C0E640121832013340368439083B403C403E04400250105120581059085C086120AE
:40108000658076107C4080018740900191019208931094109504970299209B409C909D809E04A280A480A608A810AD01AE80AF81B540C450CCF0CEF0D010D4A0D6C0D840CF
:4010C000E080E640EA50EC8030023120371046404F405A085D0163106520860488188E049101920893109430950C9606970299209C989D089E04A480A604B402CC70D080C4
:40110000D220D6C0D8C0E2401340188019801D801F026A046E04720474408002812083408580870288408A048C108E049430960297409C809D089E049F14A482A520AB0545
:40114000AD04AE40B104C440C6F0DAC0DC60E010E220E440E680E880EA10EE600022060808200B200F4156206B0477207F088B108C20C00BC20FD402DA02DE05E206210107
:4011800050045402554059805F0280048380850887208F049A089F24A011A708AA20AB01B340C802D407D605E408EA04010105081A201B0426084502870889808E10950137
:4011C0009A089D889F02A011A540A788AD01B101B402C00CC608C801D001E202E401EA04EC02391040408C4091109F01A010A540A780A902AB06AC01AE08AF01B110B60853
:40120000CE08D002E002E801EE022704520856805B408080828088808B408D2093409410960298029B409C809D089F14A208A482A680A840A980B688C820D4E0E280E68032
:40124000E8A01280191020102308521055205B425C0266088110835086108A088C028D088F0A941098029D089F10A120A402A680AE01C410C640C850D4E0D6C0D880E260A4
:40128000E420E680EE401C083880534066028008818085408A029F01A404A540A780B014C601CE08D404D801E001EA04EE0103810408070408080D80800487408F04978094
:4012C0009C089F01A580A780A840C00FC209E60810D611011A041B011CD21D01004F0040300000000140001000140140000800400140000A004C0140000210500140100078
:40130000A9A6220000000000FDFFFF0300000000D6010000000000001201060192005201105101400013010006000051014008130100080000500140101301001000000031
:40134000000000000000000000000000000000000000000000000000000000000000000000000000000000010000000000000000000100000000000000000001000000006A
:40138000000002000000000000040000000000010000000000010000000001000000000100000001000000010000000100000001000000010000000100000002000001001A
:4013C00000000800000400000200000100010000010000010000010000010000010000010001000004000004000100000400010000040001000100000800040002000100B3
:401400000008000400020001000100010001000100010001000100010001000100010002000400080100010004000400080100010000080100040100020008010004010052
:4014400002000801010008010004010002000801000401000400080100020100040100040101000401000802010004010002010004090004010100040100040201000401EB
:4014800000040101000804020100080401010100080402010102010100080402010008040101010008040201010101010101010101010004020100080402020101010101A1
:4014C0000101010101010101010100080402020101010101010101010101010101010101010101010101010101010101010101010101010105100101010102020404080878
:4015000010110101020204040808101111020204080811010204040810110202040808111102040811010204081101020408101102040811020408110204081102040811B8
:40154000020408110204081112040811020811020408120408110208110204090204090204110204110208110408110408120409120411040902041104090204110409025E
:4015800004110409120812041104090409020812041204110409020902090209020812081208120902090209020902090209040904110412081209020904110412041209F9
:4015C0000209041209020904120902090412090209041209020904120904120904120904120904120904120904120904120904120905041209041209041209051412090487
:401600001412090504120905041209050412090504120A090504120A090504120A090504120A09050412120A0905041412120909050414120A090905141412120A0A090902
:401640000505041412120A0A0909050514141414121212120A0A0A0A0909090905050505050505050505050505050505050505050505050505050505090909090A0A0A0A38
:401680001212121214141415150509090A0A12121414150509090A0A1212141505090A0A12141505090A0A12141505090A0A121505090A121505090A121505090A121505B3
:4016C000090A1215150A0A14150A0A14150A0A14150A0A15050A0A15150A12150A0A15090A14150A12150A0A15090A15050A15050A15090A150A0A150A12150A14150A1544
:40170000050A150A15050A150A14150A150A15050A150A15050A150A150A150A150A0A150A150A150A150A150A150A150A150A150A150A150A150A150A150A150A150A15F4
:401740000A150A150A15150A150A150A150A150B0A150A150B0A150A150A1A150A150A1A150A150B0A150A1A150A16150A15150A150D0A150B0A150B0A150D0A15150A166D
:40178000150B0A150D0A15150A16150B0A15150A1A15150A1A15150A1A15150B0A15150B1A16150D0A1A16150D0A1A16150D0B0A16150D0B0A1615150D0B0A1A1615150DCC
:4017C0000B0A1A1615150D0B1A1A161615150D0D0B0A1A1A161615150D0D0B0B0A1A1A1A16161616151515150D0D0D0D0B0B0B0B1A1A1A1A1B0B0B0B0B0B0B0B0A1A1A1B62
:401800000B0B0B0B1B0B0B0B0D0D0D0D15151515161616161A1A1A1B1B0B0D0D151516161A1B0B0B0D0D151516161A1B0B0D0D15161A1B0B0D0D16161A1B0B0D1516161BF2
:401840000B0D15161B0B0D15161B0B0D15161B0B0D15161B1B0D161A1B0D161A1B0D161A1B0D161B0B0D161B0B0D161B0D161B0D161B0B0D161B0D161B0D161B0D161B0D71
:40188000161B0D161B0D161B0D161B0D161B0D170D161B0D170D161B0D170D161B0D170D161B0D171D161B161B0E1B0D170D161D161B0E1B0D1B0D170D170D161D161D16F4
:4018C0001D161D161D170D170D170D171D170D1B0E1B161B161D170D1B0D1B0E1B161D171D1B0E1B161D1B0E1B170D1B0E1B170D1B0E1B170D1B161D1B0E1D1B0E1D170E54
:401900001B170E1B170D1B171D1B170E1D170E1D1B170D1B170E1D170E1D1B170E1D1B170D1B170E1D1B170E1E1D1B170D1B1B171E1D1B170E1E1D1B170E1E1D1B170F0EDC
:401940001D1B170F1E1D1D1B17170E1E1D1B1B170F0E1D1D1B17170F1E1E1D1D1B1B17170F0E1E1E1D1D1B1B17170F0F0E1E1E1E1D1D1D1D1B1B1B1B171717170F0F0F0F54
:401980000F0F0F0F0F0F0F0F0F0F0F0F0F0F0F0F0F0F0F0F1F0F0F0F171717171B1B1B1B1D1D1D1D1E1E1E1F0F0F17171B1B1D1D1E1F0F0F17171B1B1D1D1E1F1F0F171BA8
:4019C0001D1E1F0F171B1B1D1E1F0F171B1D1E1F1F171B1D1E1F171B1D1E1F171B1D1E1F171B1D1F1F171D1E1F171D1F0F171D1E1F171D1E1F171D1F1F1B1E1F171D1F0F0B
:401A00001B1F0F1B1E1F171D1F0F1B1F1F1B1F0F1D1F0F1D1F171D1F171E1F171E1F1B1F1F1D1F171E1F1D1F171F0F1D1F171F0F1D1F171F0F1E1F1D1F1B1F171F0F1E1FDE
:401A40001D1F1B1F171F0F1F0F1F0F1F0F1F0F1E1F1E1F1E1F1E1F1E1F1F0F1F1F1F171F1B1F1D1F1E1F1F0F1F171F1B1F1D1F1F0F1F1B1F1F0F1F1B1F1E1F1F1B1F1E1F74
:401A80001F1B1F1F0F1F1E1F1F1D1F1F1B1F1F1B1F1F171F1F0F1F1F1F1F1F171F1F1D1F1F1F0F1F1F171F1F1D1F1F1F0F1F1F1F0F1F1F1E1F1F1F1E1F1F1F1E1F1F1F1FE4
:401AC0001F1F1F1F1F0F1F1F1F1F0F1F1F1F1E1F1F1F1F1F0F1F1F1F1F1F1D1F1F1F1F1F1F171F1F1F1F1F1F0F1F1F1F1F1F1F1F1F1F0F1F1F1F1F1F1F1F1F1F0F1F1F1F91
:401B00001F1F1F1F1F1F1F1F1F1F1F1F1F1F1F1F1F1F1F1F1F1F1F1F1F1F1F1F1F1F1F1F1F1F1F1F0000000000000000000000000000000000000000000000000000000049
:401B4000000000000000000000000001000000000000000000000000000000000000000300000000000000000000000000000000000000070000000000000000000000005A
:401B8000000000000000000F000000000000000000000000000000000000001F000000000000000000000000000000000000101F00000000000000000000000000000000C8
:401BC0000000181F0000000000000000000000000000000000001C1F0000000000000000000000000000000000001E1F0000000000000000000000000000000000001F1FF8
:401C00000000000000000000000000000000000000101F1F0000000000000000000000000000000000181F1F00000000000000000000000000000000001C1F1F00000000A6
:401C4000000000000000000000000000001E1F1F00000000000000000000000000000000001F1F1F00000000000000000000000000000000101F1F1F00000000000000003E
:401C80000000000000000000181F1F1F000000000000000000000000000000001C1F1F1F000000000000000000000000000000001E1F1F1F000000000000000000000000BB
:401CC000000000001F1F1F1F000000000000000000000000000000101F1F1F1F000000000000000000000000000000181F1F1F1F0000000000000000000000000000001C2C
:401D00001F1F1F1F0000000000000000000000000000001E1F1F1F1F0000000000000000000000000000001F1F1F1F1F0000000000000000000000000000101F1F1F1F1F47
:401D40000000000000000000000000000000181F1F1F1F1F00000000000000000000000000001C1F1F1F1F1F00000000000000000000000000001E1F1F1F1F1F0000000040
:401D8000000000000000000000001F1F1F1F1F1F00000000000000000000000000101F1F1F1F1F1F00000000000000000000000000181F1F1F1F1F1F0000000000000000CD
:401DC00000000000001C1F1F1F1F1F1F000000000000000000000000001E1F1F1F1F1F1F000000000000000000000000001F1F1F1F1F1F1F0000000000000000000000005C
:401E0000101F1F1F1F1F1F1F000000000000000000000000181F1F1F1F1F1F1F0000000000000000000000001C1F1F1F1F1F1F1F0000000000000000000000001E1F1F1F58
:401E40001F1F1F1F0000000000000000000000001F1F1F1F1F1F1F1F0000000000000000000000101F1F1F1F1F1F1F1F0000000000000000000000181F1F1F1F1F1F1F1FD6
:401E800000000000000000000000001C1F1F1F1F1F1F1F1F00000000000000000000001E1F1F1F1F1F1F1F1F00000000000000000000001F1F1F1F1F1F1F1F1F00000000E1
:401EC000000000000000101F1F1F1F1F1F1F1F1F00000000000000000000181F1F1F1F1F1F1F1F1F000000000000000000001C1F1F1F1F1F1F1F1F1F000000000000000059
:401F000000001E1F1F1F1F1F1F1F1F1F000000000000000000001F1F1F1F1F1F1F1F1F1F000000000000000000101F1F1F1F1F1F1F1F1F1F000000000000000000181F1F9A
:401F40001F1F1F1F1F1F1F1F0000000000000000001C1F1F1F1F1F1F1F1F1F1F0000000000000000001E1F1F1F1F1F1F1F1F1F1F0000000000000000001F1F1F1F1F1F1FEA
:401F80001F1F1F1F0000000000000000101F1F1F1F1F1F1F1F1F1F1F0000000000000000181F1F1F1F1F1F1F1F1F1F1F00000000000000001C1F1F1F1F1F1F1F1F1F1F1F62
:401FC00000000000000000001E1F1F1F1F1F1F1F1F1F1F1F00000000000000001F1F1F1F1F1F1F1F1F1F1F1F00000000000000101F1F1F1F1F1F1F1F1F1F1F1F0000000076
:40200000000000181F1F1F1F1F1F1F1F1F1F1F1F000000000000001C1F1F1F1F1F1F1F1F1F1F1F1F000000000000001E1F1F1F1F1F1F1F1F1F1F1F1F000000000000001FD3
:402040001F1F1F1F1F1F1F1F1F1F1F1F000000000000101F1F1F1F1F1F1F1F1F1F1F1F1F000000000000181F1F1F1F1F1F1F1F1F1F1F1F1F0000000000001C1F1F1F1F1FE7
:402080001F1F1F1F1F1F1F1F0000000000001E1F1F1F1F1F1F1F1F1F1F1F1F1F0000000000001F1F1F1F1F1F1F1F1F1F1F1F1F1F0000000000101F1F1F1F1F1F1F1F1F1F7F
:4020C0001F1F1F1F0000000000181F1F1F1F1F1F1F1F1F1F1F1F1F1F00000000001C1F1F1F1F1F1F1F1F1F1F1F1F1F1F00000000001E1F1F1F1F1F1F1F1F1F1F1F1F1F1FFC
:4021000000000000001F1F1F1F1F1F1F1F1F1F1F1F1F1F1F00000000101F1F1F1F1F1F1F1F1F1F1F1F1F1F1F00000000181F1F1F1F1F1F1F1F1F1F1F1F1F1F1F0000000004
:402140001C1F1F1F1F1F1F1F1F1F1F1F1F1F1F1F000000001E1F1F1F1F1F1F1F1F1F1F1F1F1F1F1F000000001F1F1F1F1F1F1F1F1F1F1F1F1F1F1F1F000000101F1F1F1F07
:402180001F1F1F1F1F1F1F1F1F1F1F1F000000181F1F1F1F1F1F1F1F1F1F1F1F1F1F1F1F0000001C1F1F1F1F1F1F1F1F1F1F1F1F1F1F1F1F0000001E1F1F1F1F1F1F1F1F81
:4021C0001F1F1F1F1F1F1F1F0000001F1F1F1F1F1F1F1F1F1F1F1F1F1F1F1F1F0000101F1F1F1F1F1F1F1F1F1F1F1F1F1F1F1F1F0000181F1F1F1F1F1F1F1F1F1F1F1F1F0E
:402200001F1F1F1F00001C1F1F1F1F1F1F1F1F1F1F1F1F1F1F1F1F1F00001E1F1F1F1F1F1F1F1F1F1F1F1F1F1F1F1F1F00001F1F1F1F1F1F1F1F1F1F1F1F1F1F1F1F1F1F9C
:4022400000101F1F1F1F1F1F1F1F1F1F1F1F1F1F1F1F1F1F00181F1F1F1F1F1F1F1F1F1F1F1F1F1F1F1F1F1F001C1F1F1F1F1F1F1F1F1F1F1F1F1F1F1F1F1F1F001E1F1F34
:402280001F1F1F1F1F1F1F1F1F1F1F1F1F1F1F1F001F1F1F1F1F1F1F1F1F1F1F1F1F1F1F1F1F1F1F101F1F1F1F1F1F1F1F1F1F1F1F1F1F1F1F1F1F1F181F1F1F1F1F1F1F93
:4022C0001F1F1F1F1F1F1F1F1F1F1F1F1C1F1F1F1F1F1F1F1F1F1F1F1F1F1F1F1F1F1F1F1E1F1F1F1F1F1F1F1F1F1F1F1F1F1F1F1F1F1F1F1F1F1F1F1F1F1F1F1F1F1F1F22
:402300001F1F1F1F1F1F1F1F71E0FFFC2E8F1A0F531E57032D0F75FF82C39E0100000000000000000000000000000000000000000000000000000000000000000000010013
:40234000000000000000000000000000000000000000000000000000000000000000000001000100000000000000000000000000000000000000000000000000000000005B
:402380000000010001000100000000000000000000000000000000000000000000000000000000000100010001000100000000000000000000000000000000000000000016
:4023C00000000000000001000100010001000100000000000000000000000000000000000000000000000000010001000100010001000100000000000000000000000000D2
:40240000000000000000000000000100010001000100010001000100000000000000000000000000000000000000000001000100010001000100010001000100000000008D
:40244000000000000000000000000000000001000100010001000100010001000100010000000000000000000000000000000000010001000100010001000100010001004B
:402480000100010000000000000000000000000000000100010001000100010001000100010001000100010000000000000000000000000001000100010001000100010009
:4024C00001000100010001000100010000000000000000000000010001000100010001000100010001000100010001000100010000000000000000000100010001000100C5
:402500000100010001000100010001000100010001000100000000000000010001000100010001000100010001000100010001000100010001000100000000000100010080
:402540000100010001000100010001000100010001000100010001000100010000000000707F0000237900002E7300008D6D00003B680000326300006F5E0000ED590000DC
:40258000A95500009E510000CB4D00002A4A0000BA4600007743000060400000713D0000A93A0000053800008235000021330000DD300000B62E0000AB2C0000B92A0000C4
:4025C000E02800001E27000071250000D923000055220000E3200000831F0000331E0000F41C0000C31B0000A01A00008A190000821800008517000094160000AE150000A1
:40260000D2140000001400003813000078120000C1110000121100006A100000CA0F0000310F00009E0E0000120E00008C0D00000B0D0000900C0000190C0000A80B000052
:402640003C0B0000D40A0000700A0000110A0000B50900005D09000009090000B80800006A0800001F080000D7070000930700005007000011070000D406000099060000B1
:40268000610600002A060000F6050000C40500009305000065050000380500000D050000E3040000BB04000095040000700400004C0400002A04000008040000E803000046
:4026C000C9030000AC0300008F03000073030000590300003F030000260300000E030000F7020000E0020000CB020000B6020000A10200008E0200007B0200006902000004
:40270000570200004602000036020000260200001602000008020000F9010000EB010000DE010000D1010000C4010000B8010000AC010000A0010000950100008A010000F2
:402740008001000010B50D48007800280CD00C480078002808D0C8220A490B4C200000F019F801200949087010BD80B5084800F05CF8012000F05DF801BD00003B92FF1F31
:402780004492FF1FC88CFF1F908DFF1F3A92FF1F4527010062B38B0708D0521E11F8013B00F8013B00F024808B07F6D1830740F0208000BF103A07D330B4B1E83810103A80
:4027C000A0E83810F9D230BC530724BFB1E80810A0E8081044BF51F8043B40F8043BD20724BF31F8022B20F8022B44BF0B7803707047083A07D3B1E80810083A40F8043B35
:4028000040F804CBF7D25307E4E7704780B500F018F80FF2150000F008F8012000F009F800F00BF801BD0000704708490968C86470474001064908707047082005490860F5
:4028400070470820044908607047000008ED00E003E400E000E100E080E100E080B500F084F900F0E9F9002000F0AEF900F025FA00F08AFA002000F04FFA00F0D8FA00F0B6
:40288000FFFA00F0CDFBFFF7C1FFFFF76EFF00F014F800209849087001F091FA0020974908800120964908700121002000F0F2F80221002000F0EEF801BD38B541F6FF73D4
:4028C0004FF480420121022001F0F2FA040001F008FC050006232A00D2B2C8212800C0B201F01AFC874A92B245F6A0312800C0B201F034FC2900C9B22000C0B201F0A2FBB3
:4029000001212000C0B201F014FB31BD70B501F04AFC040000207A490870E4B2032C35D000262EE008227848F6B210EBC6007749097810EB8100011F7548F6B2EDB20523E0
:4029400003FB056330F813000A23584301F057FC6D49F6B211EBC6016C4A127841F822006D1CEDB2142DDDDB6748F6B210EBC6006649097850F821006649F6B221F8160096
:40298000761CF6B2022E53DA0025EAE7002516E008225D485D49097810EB810010F10C015B48EDB20A2303FB0500808801F027FC5549564A127811EB820108616D1CEDB289
:4029C000142DE5DB50485149097810EB810000694A4908804948B0F9000000F074F84E4908604D4800684D4902F0E4FA0AD801220121082000F077FC01220021082000F01D
:402A000095FC15E044480068454902F0D3FA0AD801220021082000F066FC01220121082000F084FC04E001220021082000F07EFCE4B2012C2AD1002516E00822324833499F
:402A4000097810EB810010F10C013148EDB20A2303FB0500808801F0D2FB2B492B4A127811EB820108616D1CEDB2142DE5DB26482649097810EB81000069204908801F481E
:402A8000B0F9000000F01FF82349086001201C49087070BD80B5C0B2FB2800DBFA20C9B2012906D1C0B21F490880C0B200F08CF808E0C9B2022905D1C0B21A494880C0B271
:402AC00000F02AF901BD80B500B202F02FFB0100154802F075FB154902F0F0FB144902F0EDFB02F02DFC02F03DFC642190FBF1F002F092FC02BD00003A92FF1F2492FF1F9C
:402B00003B92FF1FC88CFF1FC080FF1F4C81FF1F908DFF1FB091FF1FD891FF1F0100B44201008C42DC91FF1F00803B4700401CC60000FA4480B500202B49087000202B4946
:402B40000870042000F02FF8022000F01EF801BD2748007850F00400254908702548007850F0040023490870704780B522480078002804D1FFF7DEFF01201F490870FFF709
:402B8000E7FF002000F020F801BD1749097811F0FD01154A11701449097810F00200084311490870704780B50F49097811F0F3010D4A11700C49097810F00C0008430A497A
:402BC000087000F004F801BD0C490870704706480078C0F38100801DC0B20949085C094908707047000000002858004029580040A8430040B84300408192FF1F825B0040BA
:402C0000280100490A46004080B5032000F021F801BD1748007850F06000154908701548007850F00200134908701348007850F0020011490870704780B510480078002870
:402C400004D101200D490870FFF7DEFFFFF7E1FF01BD0B49097811F0FC01094A11700849097810F003000843054908707047000077580040A4430040B44300408292FF1F46
:402C80005A58004080B500202B49087000202B490870042000F02FF8002000F01EF801BD2748007850F00100254908702548007850F0010023490870704780B522480078D0
:402CC000002804D1FFF7DEFF01201F490870FFF7E7FF052000F020F801BD1749097811F0FD01154A11701449097810F00200084311490870704780B50F49097811F0F301C5
:402D00000D4A11700C49097810F00C0008430A49087000F004F801BD0C490870704706480078C0F38100801DC0B20949085C094908707047000000002058004021580040E4
:402D4000A8430040B84300408392FF1F805B0040200100490846004080B5022000F021F801BD1748007850F06000154908701548007850F00400134908701348007850F03C
:402D8000040011490870704780B510480078002804D101200D490870FFF7DEFFFFF7E1FF01BD0B49097811F0FC01094A11700849097810F0030008430549087070470000EA
:402DC00077580040A4430040B44300408492FF1F5C58004080B50620214908700820214908702048007850F010001E49087081201D4908701D48007850F008001B49087068
:402E0000032000F021F801BD1948007850F00400174908701748007850F00400154908701548007850F0800013490870704780B512480078002804D1FFF7CCFF01200F4964
:402E40000870FFF7E1FF01BD0649097811F0FC0110F0030001430348017070470000000008580040095800400A5800402B5A0040A9430040B9430040775800406B92FF1F84
:402E800080B554480078002804D100F006F801205049087000F01AF801BD80B5102002F0D5FA0721082002F035FB4B49082002F020FB4A48007850F00600484908700C2006
:402EC00000F04FF800204649088001BD10B5FDF79FF804004348007850F00100414908704148007850F001003F4908703F48007850F001003D4908703D48007850F001004E
:402F00003B4908703B48007850F0020050F00100384908701820384908703848007850F04000364908703548007810F0DF0033490870CE2032490870022032490870324846
:402F4000007850F00800304908700A2002F091FA4FF480702D4908602000C0B2FDF75CF810BD80B5C0B20100082907D00A2903D00C2905D1C42104E0842102E0442100E0EB
:402F8000C421234A1170C0B200F001F801BDC0B2082809D00A2804D00C2808D14FF4805006E04FF4806003E04FF4807000E000200021194A118042F21071484300F6C41046
:402FC00041F2883190FBF1F01449086000201149088070476A92FF1F0B280100015900402C92FF1FAB430040BB430040A1430040B14300400359004006590040055900409A
:403000000059004014460040275B004080E200E0025900403092FF1F2E92FF1F0C92FF1F4FF48070014908607047000080E100E080B50020DFF8C81A086002F08AFA00F08B
:403040009FFE00F048F900F001F801BD10B510210022DFF8B04A200003F020FA10210022DFF8A44A200003F019FA4FF6FF70DFF8A81AC8804FF6FF70DFF89C1A088100F038
:4030800078F90020DFF8841A087010BD80B500F049F8DFF8680A0078401CDFF8601A0870DFF8580A00780A283BDB0020DFF84C1A087000F056F8DFF8580A0078401CDFF889
:4030C000501A0870DFF8480A00780A2805DB0020DFF83C1A087000F089F8DFF8380A0078401CDFF8301A0870DFF8280A0078192817DB0020DFF81C1A087000F07BF8DFF8EC
:403100001C0A0078401CDFF8141A0870DFF80C0A0078042805DB0020DFF8001A087000F09DF801BD80B5DFF8F80990F90000002802D102F01AFB0CE0DFF8E40990F900000A
:40314000012806DBDFF8D8090078401EDFF8D0190870DFF8AC090068401CDFF8A419086001BD80B5DFF8BC090078002837D0DFF8B809007800280ED10120DFF8AC190870B1
:40318000DFF8940900884FF6FE710840DFF88819088000F0EEF8DFF894090078401CDFF88C190870DFF884090078C92817DB0020DFF8781908700020DFF868190870002036
:4031C000DFF86419087002F0A0FADFF84C09008850F00100DFF84019088000F0CAF800F0E2FF032801D003F0B1F901BD80B503F03DFB01BD80B500F099FDDFF82809007897
:40320000002807D003F0D5FBC0B2C043C0B203F0C5FB02E0012003F0C1FB01BD002000E0401C04280BDADFF808194156DFF80429825C09B212B29142F2DB012000E00020A4
:403240007047002007E0DFF8E818415C491CDFF8E0288154401C0428F5DB704780B5DFF8B8080078400706D503F0A3FBC0B2C043C0B203F093FB00F096FF032802D00528E6
:403280000FD027E0DFF8B0080078002808D1DFF888088088000503D40020DFF8A018088018E0DFF89C080078002812D0FFF7C9FFFFF7B4FF00280CD0012201210E2000F0DB
:4032C00012F80020DFF8781808700020DFF86818C870FFE701BD80B503F076FBDFF8980803F081FB01BD80B5DFF8183880B2C35C92B21340C9B28B4217D0C9B2002909D045
:40330000DFF8001880B2415C1143DFF8F82780B2815408E0DFF8EC1780B2415C9143DFF8E42780B2815400F024F801BD80B5DFF8D83780B2C35C92B21340C9B28B4217D034
:40334000C9B2002909D0DFF8C01780B2415C1143DFF8B42780B2815408E0DFF8AC1780B2415C9143DFF8A02780B2815400F001F801BD80B500F017FF022814D017D3042876
:4033800009D003D3062806D00AD310E000F046F900F098FA0FE000F0C4FA00F0ADFB0AE000F0D0FB07E000F0E9FB00F03FFC00F0ACF800F032F900F001F801BD80B5DFF8BA
:4033C000580700790E21084208D0DFF84C07008850F48060DFF84017088008E0DFF8380700884FF6FF310840DFF82C170880DFF8280780884FF4787108420AD0DFF81807DF
:40340000008850F40060DFF81017088000F03FFD0AE0DFF8040700884FF2FF710840DFF8F816088000F02AFDDFF8EC0680884FF4606108420AD0DFF8E006008850F400500B
:40344000DFF8D416088000F022FD0AE0DFF8C80600884DF6FF710840DFF8BC16088000F00DFDDFF8B4060079C00708D5DFF8A806008850F48040DFF8A016088008E0DFF824
:40348000980600884BF6FF710840DFF88C160880DFF884064088C00508D5DFF87C06008850F04000DFF87016088008E0DFF8680600884FF6BF710840DFF85C160880DFF8C1
:4034C000580640884FF45061084208D0DFF84806008850F48070DFF84016088008E0DFF8380600884FF6FF610840DFF82C160880DFF8240600884CF60F41084202D000F0C0
:403500007DFC01E000F06DFC01BD80B5DFF8F405007800280DD0DFF80006808850F00100DFF8F415888000220121012000F07FFB0DE0DFF8E40580884FF6FE710840DFF833
:40354000D815888000220021012000F070FBDFF8B405C07800280DD0DFF8BC05808850F00800DFF8B415888000220121082000F05EFB0DE0DFF8A00580884FF6F77108401F
:40358000DFF89415888000220021082000F04FFBDFF87005807900280DD0DFF87C05808850F04000DFF87015888000220121402000F03DFB0DE0DFF8600580884FF6BF71DE
:4035C0000840DFF85415888000220021402000F02EFBDFF83005007A00280ED0DFF83805808850F48070DFF830158880002201214FF4807000F01BFB0EE0DFF81C05808814
:403600004FF6FF610840DFF810158880002200214FF4807000F00BFB01BD704780B5DFF8E404007800280DD0DFF8EC04808850F00100DFF8E414888000220121012000F00B
:40364000F6FA0DE0DFF8D00480884FF6FE710840DFF8C414888000220021012000F0E7FADFF8A004807800280DD0DFF8AC04808850F00400DFF8A01488800022012104208C
:4036800000F0D5FA0DE0DFF8900480884FF6FB710840DFF88414888000220021042000F0C6FADFF86004C07800280DD0DFF86804808850F00800DFF86014888000220121C2
:4036C000082000F0B4FA0DE0DFF84C0480884FF6F7710840DFF84014888000220021082000F0A5FADFF81C04407900280DD0DFF82804808850F02000DFF81C148880002275
:403700000121202000F093FA0DE0DFF80C0480884FF6DF710840DFF80014888000220021202000F084FADFF8DC03807900280DD0DFF8E403808850F04000DFF8DC13888045
:4037400000220121402000F072FA0DE0DFF8C80380884FF6BF710840DFF8BC13888000220021402000F063FADFF89803C07900280DD0DFF8A403808850F08000DFF89813DF
:40378000888000220121802000F051FA0DE0DFF8880380884FF67F710840DFF87C13888000220021802000F042FADFF85803007A00280ED0DFF86003808850F48070DFF892
:4037C00058138880002201214FF4807000F02FFA0EE0DFF8440380884FF6FF610840DFF838138880002200214FF4807000F01FFADFF81003407A00280ED0DFF81C03808874
:4038000050F40070DFF810138880002201214FF4007000F00CFA0EE0DFF8FC0280884FF6FF510840DFF8F0128880002200214FF4007000F0FCF9DFF8CC02807A00280ED0DC
:40384000DFF8D402808850F48060DFF8CC128880002201214FF4806000F0E9F90EE0DFF8B80280884FF6FF310840DFF8AC128880002200214FF4806000F0D9F9DFF8840213
:40388000C07A00280ED0DFF89002808850F40060DFF884128880002201214FF4006000F0C6F90EE0DFF8700280884FF2FF710840DFF864128880002200214FF4006000F045
:4038C000B6F901BDDFF84002007A002808D0DFF84802408850F48070DFF83C12488008E0DFF8340240884FF6FF610840DFF828124880DFF81402C07A002808D0DFF8180223
:40390000408850F40060DFF81012488008E0DFF8080240884FF2FF710840DFF8FC114880704780B5DFF80004007800280DD0DFF8F802808850F00100DFF8EC1288800022C7
:403940000121012000F073F90DE0DFF8DC0280884FF6FE710840DFF8D012888000220021012000F064F9DFF8C003807800280DD0DFF8B402808850F00400DFF8AC12888083
:4039800000220121042000F052F90DE0DFF8980280884FF6FB710840DFF88C12888000220021042000F043F9DFF87C03C07800280DD0DFF87402808850F00800DFF8681274
:4039C000888000220121082000F031F90DE0DFF8580280884FF6F7710840DFF84C12888000220021082000F022F9DFF83C03407900280DD0DFF83002808850F02000DFF84F
:403A00002812888000220121202000F010F90DE0DFF8140280884FF6DF710840DFF80812888000220021202000F001F9DFF8F802807900280DD0DFF8F001808850F0400083
:403A4000DFF8E411888000220121402000F0EFF80DE0DFF8D40180884FF6BF710840DFF8C811888000220021402000F0E0F8DFF8B802C07900280DD0DFF8AC01808850F0DB
:403A80008000DFF8A411888000220121802000F0CEF80DE0DFF8900180884FF67F710840DFF88411888000220021802000F0BFF8DFF87402407B00280ED0DFF86C01808826
:403AC00050F40050DFF860118880002201214FF4005000F0ACF80EE0DFF84C0180884DF6FF710840DFF840118880002200214FF4005000F09CF801BD704700007092FF1F43
:403B00001492FF1F4491FF1F5491FF1F6F92FF1F7192FF1F7292FF1F9891FF1F7392FF1F3C92FF1F4292FF1F7492FF1F4192FF1F1892FF1F1C92FF1FB891FF1FD091FF1F92
:403B40004F92FF1F80B57848807B00280CD03648808850F4804034498880002003F092F9DFF8FC12C87006E02F4880884BF6FF7108402D49888001BD8D30010080B56A4849
:403B8000007800280BD02848808850F001002649888000220121012000F049F80BE0224880884FF6FE7108401F49888000220021012000F03CF85C48C07800280BD01A4832
:403BC000808850F008001849888000220121082000F02DF80BE0144880884FF6F77108401149888000220021082000F020F84E48807900280BD00C48808850F040000A49B1
:403C0000888000220121402000F011F80BE0064880884FF6BF7108400349888000220021402000F004F801BD9891FF1F7047D2B2002A06D000208B49088000208A490870D7
:403C400071E0C9B2002905D08649098808438549088005E08349098831EA00008149088080480078C00703D501207F4908705AE07C480078400703D503207B49087052E064
:403C800078480078000703D50420774908704AE074480078800603D506207349087042E070480078400603D507206F4908703AE06C480078000603D508206B49087032E02A
:403CC00068480088C00503D50920674908702AE064480088800503D50A206349087022E060480088400503D50B205F4908701AE05C480088000503D50C205B49087012E0DE
:403D000058480088800403D50E20574908700AE054480088400403D50F205349087002E000205149087070474491FF1F80B54F480078002806D04C4800784D490870002012
:403D40004A4908704B480078411C4A4A11704A49474A1278222303FB0211C0B2405C03F03DF944480078424909784900891C884205D100203F49087001203C49087001BDE6
:403D800080B5002003F036F901BD80B503F035F950F00100C0B203F02DF901BD80B503F02CF910F0FE0003F025F901BD80B503F024F950F00400C0B203F01CF901BD80B5DE
:403DC00003F01BF950F00800C0B203F013F901BD80B503F012F950F01000C0B203F00AF901BD80B503F009F950F00200C0B203F001F9FEF7BAFEFEF760FF01BD80B503F0EA
:403E0000FCF810F0FD0003F0F5F8002002F069FF13490870002002F0FDFF11498870002003F030F80E49C870002003F063F80C490871002003F096F80949487100F0B3F9B5
:403E4000042805D1642002F0A5FF0549487004E0002002F09FFF0249487001BD00000000B891FF1F3892FF1F6F92FF1F5C81FF1F7692FF1F7592FF1F1C23010080B503F0AF
:403E8000BCF850F04000C0B203F0B4F801BD80B503F0B3F810F0BF0003F0ACF801BD80B503F0ABF850F08000C0B203F0A3F801BD30B583B014001D0001220F4B1A7000225D
:403EC00001920022009201230A00D2B20100C9B20948007800F0D6F82A0092B2210089B20548007800F087F803210348007800F06DF8014800783EBD5A81FF1F7F20DFF861
:403F00008C1208708020DFF8881208707F2006E0411EDFF88022C0B202F83010401EC0B20028F5D10021DFF86C22C0B202F8301070470122C0B2182828DAC9B200290CD0DB
:403F4000DFF85412C0B20201515C51F02001DFF84822C0B2030199540BE0DFF83C12C0B20201515C11F0DF01DFF82C22C0B203019954DFF82412C0B20201515C51F00101CF
:403F8000DFF81422C0B2000181540022100070470121C0B2182817DADFF8FC11C0B20201515C11F0FE01DFF8F021C0B203019954DFF8E411C0B20201515C11F0DF01764A1E
:403FC000C0B2000181540021080070470122C0B218280EDA704AC0B203019A5C12F0F10211F0070152EA41016B4AC0B20001815400221000704710B4012389B241F6FF7487
:40400000A14201D14FF4005192B241F6FF74A24201D14FF40052C0B2182810DAC0B2C30003F1804313F5EC431B1D1980C0B2C00000F1804010F5EC40831D1A8000231800E5
:4040400010BC70470122C0B2182805DA524AC0B212EB001041720022100070470122C0B218280DDA4C4AC0B212EB0012127911F007011143484AC0B212EB001001710022F2
:404080001000704710B40124C0B2182826DA11F07F0151EAC211414AC0B202F83010019913F00F0252EA0111C0B2C20002F1804212F5EC425170029911F00F01C0B2C2001D
:4040C00002F1804212F5EC4291700021C0B2C00000F1804010F5EC40C1700024200010BC704710B5FF24FBF793FF2949097819290CDB26490C7826490978491E244A1170E7
:404100002449E4B211F83410204A1170C0B2FBF783FF2000C0B210BD70B40124C0B2802819D24FF47045294215D1C0B2C40004F1804414F5F0442180C0B2C10001F18041B5
:4041400011F5F0418A70C0B2C00000F1804010F5F040C3700024200070BC70470123C0B2802810D2C0B2C30003F1804313F5F0431B1D1980C0B2C00000F1804010F5F0406C
:40418000831D1A8000231800704700005481FF1F5381FF1F00780040107000400076004003490870704702480078C0B2704700007964004080B5C9B203290AD005290BD07E
:4041C00006290CD007290DD009290ED019290FD011E000F03AF810E000F05BF80DE000F0A8F80AE000F03CF907E000F0CBF904E000F09CFA01E0B0F9000000B202BD10B4E0
:4042000000020B680C68001B0012D2B202FB0030086008680968C1F3C01111EB202010BC704710B40022002304E0DBB230F91340A2185B1CDBB2C9B28B42F6D3C9B292FB5D
:40424000F1F2100000B210BC7047B0F90210B0F90020914204DAB0F90010428802804180B0F90410B0F90220914204DAB0F90210828842808180B0F90210B0F90020914203
:4042800004DAB0F90010428802804180B0F902007047B0F90210B0F90020914204DAB0F90010428802804180B0F90810B0F90620914204DAB0F906100289C2800181B0F905
:4042C0000610B0F90020914204DAB0F90010C2880280C180B0F90810B0F90220914204DAB0F90210028942800181B0F90410B0F90220914204DAB0F90210828842808180E0
:40430000B0F90610B0F90420914204DAB0F90410C2888280C180B0F90410B0F90220914204DAB0F90210828842808180B0F90400704780B5B0F90410B0F90220914204DA63
:40434000B0F90210828842808180B0F90810B0F90620914204DAB0F906100289C2800181B0F90210B0F90020914204DAB0F90010428802804180B0F90610B0F9042091420C
:4043800004DAB0F90410C2888280C180B0F90A10B0F90820914204DAB0F90810428902814181B0F90410B0F90220914204DAB0F90210828842808180B0F90810B0F906206E
:4043C000914204DAB0F906100289C2800181B0F90210B0F90020914204DAB0F90010428802804180B0F90610B0F90420914204DAB0F90410C2888280C180B0F90A10B0F910
:404400000820914204DAB0F90810428902814181B0F90410B0F90220914204DAB0F90210828842808180B0F90810B0F90620914204DAB0F906100289C2800181B0F9041005
:40444000B0F90600401802F0DFFD0022034B02F0F1FD02F0C1FE00B202BD00000000E03FB0F90A10B0F90020914204DAB0F90010428902804181B0F90610B0F90020914276
:4044800004DAB0F90010C2880280C180B0F90C10B0F90220914204DAB0F90210828942808181B0F90810B0F90420914204DAB0F90410028982800181B0F90210B0F90020FE
:4044C000914204DAB0F90010428802804180B0F90A10B0F90620914204DAB0F906104289C2804181B0F90C10B0F90420914204DAB0F90410828982808181B0F90610B0F9FD
:404500000420914204DAB0F90410C2888280C180B0F90C10B0F90620914204DAB0F906108289C2808181B0F90A10B0F90820914204DAB0F90810428902814181B0F9081032
:40454000B0F90220914204DAB0F90210028942800181B0F90610B0F90220914204DAB0F90210C2884280C180B0F90810B0F90620914204DAB0F906100289C2800181B0F9FA
:4045800006007047B0F90410B0F90220914204DAB0F90210828842808180B0F90A10B0F90820914204DAB0F90810428902814181B0F91010B0F90E20914204DAB0F90E104F
:4045C000028AC2810182B0F90210B0F90020914204DAB0F90010428802804180B0F90810B0F90620914204DAB0F906100289C2800181B0F90E10B0F90C20914204DAB0F929
:404600000C10C2898281C181B0F90410B0F90220914204DAB0F90210828842808180B0F90A10B0F90820914204DAB0F90810428902814181B0F91010B0F90E20914204DAA6
:40464000B0F90E10028AC2810182B0F90610B0F90020914204DAB0F90010C2880280C180B0F91010B0F90A20914204DAB0F90A10028A42810182B0F90E10B0F908209142D5
:4046800004DAB0F90810C2890281C181B0F90C10B0F90620914204DAB0F906108289C2808181B0F90810B0F90220914204DAB0F90210028942800181B0F90A10B0F90420A1
:4046C000914204DAB0F90410428982804181B0F90E10B0F90820914204DAB0F90810C2890281C181B0F90410B0F90820914204DAB0F90810828802818180B0F90810B0F9AB
:404700000C20914204DAB0F90C10028982810181B0F90410B0F90820914204DAB0F90810828802818180B0F908007047B0F90210B0F90020914204DAB0F900104288028097
:404740004180B0F90810B0F90620914204DAB0F906100289C2800181B0F90810B0F90420914204DAB0F90410028982800181B0F90610B0F90420914204DAB0F90410C288DA
:404780008280C180B0F90E10B0F90C20914204DAB0F90C10C2898281C181B0F90E10B0F90A20914204DAB0F90A10C2894281C181B0F90C10B0F90A20914204DAB0F90A10AA
:4047C000828942818181B0F91410B0F91220914204DAB0F91210828A42828182B0F91410B0F91020914204DAB0F91010828A02828182B0F91210B0F91020914204DAB0F941
:404800001010428A02824182B0F91A10B0F91820914204DAB0F91810428B02834183B0F91A10B0F91620914204DAB0F91610428BC2824183B0F91810B0F91620914204DA91
:40484000B0F91610028BC2820183B0F92010B0F91E20914204DAB0F91E10028CC2830184B0F92010B0F91C20914204DAB0F91C10028C82830184B0F91E10B0F91C20914289
:4048800004DAB0F91C10C28B8283C183B0F92610B0F92420914204DAB0F92410C28C8284C184B0F92610B0F92220914204DAB0F92210C28C4284C184B0F92410B0F9222045
:4048C000914204DAB0F92210828C42848184B0F92C10B0F92A20914204DAB0F92A10828D42858185B0F92C10B0F92820914204DAB0F92810828D02858185B0F92A10B0F97B
:404900002820914204DAB0F92810428D02854185B0F93010B0F92E20914204DAB0F92E10028EC2850186B0F90A10B0F90420914204DAB0F90410428982804181B0F90C1059
:40494000B0F90620914204DAB0F906108289C2808181B0F90C10B0F90020914204DAB0F90010828902808181B0F90610B0F90020914204DAB0F90010C2880280C180B0F97A
:404980000E10B0F90820914204DAB0F90810C2890281C181B0F90E10B0F90220914204DAB0F90210C2894280C181B0F90810B0F90220914204DAB0F9021002894280018172
:4049C000B0F91C10B0F91620914204DAB0F91610828BC2828183B0F91C10B0F91020914204DAB0F91010828B02828183B0F91610B0F91020914204DAB0F91010C28A02827F
:404A0000C182B0F91E10B0F91820914204DAB0F91810C28B0283C183B0F91E10B0F91220914204DAB0F91210C28B4282C183B0F91810B0F91220914204DAB0F91210028BAB
:404A400042820183B0F92010B0F91A20914204DAB0F91A10028C42830184B0F92010B0F91420914204DAB0F91410028C82820184B0F91A10B0F91420914204DAB0F914105D
:404A8000428B82824183B0F92E10B0F92820914204DAB0F92810C28D0285C185B0F92E10B0F92220914204DAB0F92210C28D4284C185B0F92810B0F92220914204DAB0F9FC
:404AC0002210028D42840185B0F93010B0F92A20914204DAB0F92A10028E42850186B0F93010B0F92420914204DAB0F92410028E82840186B0F92A10B0F92420914204DA59
:404B0000B0F92410428D82844185B0F92C10B0F92620914204DAB0F92610828DC2848185B0F92210B0F91020914204DAB0F91010428C02824184B0F92410B0F9122091426E
:404B400004DAB0F91210828C42828184B0F92410B0F90020914204DAB0F90010828C02808184B0F91210B0F90020914204DAB0F90010428A02804182B0F92610B0F9142045
:404B8000914204DAB0F91410C28C8282C184B0F92610B0F90220914204DAB0F90210C28C4280C184B0F91410B0F90220914204DAB0F90210828A42808182B0F92810B0F916
:404BC0001620914204DAB0F91610028DC2820185B0F92810B0F90420914204DAB0F90410028D82800185B0F91610B0F90420914204DAB0F90410C28A8280C182B0F92A10F5
:404C0000B0F91820914204DAB0F91810428D02834185B0F92A10B0F90620914204DAB0F90610428DC2804185B0F91810B0F90620914204DAB0F90610028BC2800183B0F9F2
:404C40002C10B0F91A20914204DAB0F91A10828D42838185B0F92C10B0F90820914204DAB0F90810828D02818185B0F91A10B0F90820914204DAB0F90810428B02814183CD
:404C8000B0F92E10B0F91C20914204DAB0F91C10C28D8283C185B0F92E10B0F90A20914204DAB0F90A10C28D4281C185B0F91C10B0F90A20914204DAB0F90A10828B428196
:404CC0008183B0F93010B0F91E20914204DAB0F91E10028EC2830186B0F93010B0F90C20914204DAB0F90C10028E82810186B0F91E10B0F90C20914204DAB0F90C10C28B3F
:404D00008281C183B0F92010B0F90E20914204DAB0F90E10028CC2810184B0F92610B0F90E20914204DAB0F90E10C28CC281C184B0F92A10B0F91A20914204DAB0F91A1060
:404D4000428D42834185B0F92E10B0F91E20914204DAB0F91E10C28DC283C185B0F91A10B0F90E20914204DAB0F90E10428BC2814183B0F91E10B0F90E20914204DAB0F9AB
:404D80000E10C28BC281C183B0F91210B0F90220914204DAB0F90210428A42804182B0F91610B0F90620914204DAB0F90610C28AC280C182B0F92210B0F90A20914204DA70
:404DC000B0F90A10428C42814184B0F92210B0F91620914204DAB0F91610428CC2824184B0F92210B0F91220914204DAB0F91210428C42824184B0F91410B0F9082091428F
:404E000004DAB0F90810828A02818182B0F91810B0F90C20914204DAB0F90C10028B82810183B0F91C10B0F90E20914204DAB0F90E10828BC2818183B0F90C10B0F9082003
:404E4000914204DAB0F90810828902818181B0F90E10B0F90820914204DAB0F90810C2890281C181B0F91C10B0F91820914204DAB0F91810828B02838183B0F91C10B0F9CA
:404E80001420914204DAB0F91410828B82828183B0F90E10B0F90C20914204DAB0F90C10C2898281C181B0F91810B0F91420914204DAB0F91410028B82820183B0F914107B
:404EC000B0F90C20914204DAB0F90C10828A82818182B0F92210B0F90C20914204DAB0F90C10428C82814184B0F92210B0F91820914204DAB0F91810428C02834184B0F99A
:404F00002210B0F90E20914204DAB0F90E10428CC2814184B0F91410B0F90E20914204DAB0F90E10828AC2818182B0F92410B0F91820914204DAB0F91810828C02838184D4
:404F4000B0F91810B0F90E20914204DAB0F90E10028BC2810183B0F92410B0F91420914204DAB0F91410828C82828184B0F92810B0F91820914204DAB0F91810028D028316
:404F80000185B0F92810B0F91420914204DAB0F91410028D82820185B0F91810B0F91420914204DAB0F91410028B82820183B0F9180070474FF0807C1CEB400F94BF1CEB72
:404FC000410F05E040EA010C5FEA4C0C01D28142704718BF8842704780B565480078002804D100F006F801206149087000F01AF801BD80B5102002F015F90721092000F011
:4050000089FA5C49092000F074FA5B48007850F00600594908700C2000F04FF800205749088001BD10B5FAF7F3FF04005448007850F00200524908705248007850F0020074
:40504000504908705048007850F002004E4908704E48007850F002004C4908704C48007850F0020050F00100494908701820494908704948007850F0400047490870464867
:40508000007810F0DF0044490870CE20434908700220434908704348007850F00800414908700A2000F0E5F94FF400703E4908602000C0B2FAF7B0FF10BD80B5C0B20100EE
:4050C000082907D00A2903D00C2905D1C42104E0842102E0442100E0C421344A1170C0B200F001F801BDC0B2082809D00A2804D00C2808D14FF4805006E04FF4806003E078
:405100004FF4807000E0002000212A4A118042F21071484300F6C41041F2883190FBF1F025490860002022490880704738B52149B1F90010002906D01E49B1F900100A22B7
:4051400002FB01F401E01C490C680C490988401A00B200F061F9194902F06EF80500200000F05AF90100280000F02AF832BD00006C92FF1F4B540100095900403292FF1FBB
:40518000AB430040BB430040A1430040B14300400B5900400E5900400D59004008590040164600402F5B004080E200E00A5900403692FF1F3492FF1F1092FF1F0000204163
:4051C00010B5FF2313EAD0541DBF13EAD1529C429A4239E0A41ADA0780EA0103134042EA012142EA0020421A3CBF641E01EB4202090AB2FBF1FE01FB1E221202B2FBF1F048
:4052000001FB10226EF30F201202B2FBF1FE4EEA00207F3406DDFE2C24DA53EA500050EBC45010BDD4F1020401FB1E2240F08071192C1DDC21FA04F0C4F12004A1401143BE
:4052400071F10042584110BD9C421ABF03EAD1529A420FE080EA010E0EF00043400004D0490016D143F0FF4010BD490008BFD343180010BD9C4205D1D21AF7D001F00041B1
:40528000484010BD4A0212BF0846484000F0004010BD4AB90902B1FA81F2914044B1A418C00140F000409EE7C90141F0004152420002B0FA80F4A040141B94E790EA010F41
:4052C00044BF81F0004102F023B800BF421A3CBF801A89184FF0004CC0F3C752FF2A24D0C1F3C75313B3D21AD2F1190327DD4CEA01214CFA03F321EA0303D140C20D4CEA49
:405300000020401834BF20EA0C004CEA5000D20553EA006373EB0C0C52EB1020420012F1807F38BF7047C00DC0057047490212BF9A4200EB5120F8E7D2F11703D9D570475C
:4053400040000DD2010E7F390AD4D1F11F0104D4C00140F00040C84070477FF0000070470020704710B40023782100E0531C9BB289B28B4210D29BB289B2CA18521092B2AC
:40538000002A08D092B2782A05D0224C92B254F82240A04218D111001E4A89B252F82120904219D289B2782916D21A4A89B212EB81025268821A174B89B253F821301B1A62
:4053C0009A4209D2491C1FE0124C92B254F82240A042CBD3511ECAE70E4A89B252F82120824211D289B200290ED00A4A89B212EB810252F8042C121A064B89B253F82130BE
:40540000C01A824200D2491E642000FB01F000B210BC704760250100002840F10980F446404200F005F850F000406047002800BF0AD0B0FA80F18840D1F19D01C9050206DE
:4054400072F1004241EB1020704770470349097810F0F800084301490870704702410040DFF8C000007850F00100DFF8B8100870704780B580B2DFF8B01009784843FAF798
:40548000CEFD01BDDFF8A4201278D2B212F0FC0210F003001043DFF894201070DFF88C00007850F08000DFF884201070DFF87C00007810F07F00DFF874201070480110F045
:4054C0006000DFF868100978C9B211F09F010843DFF858100870DFF85400007850F01000DFF84810087070470120DFF8441008707047104A1368C0B210F01F0213EB8202A8
:40550000126CC0B210F01F0013EB800001641000704700004901084AC0B210F01F00815470470000F64600405581FF1F834300408443004008ED00E000E400E010B5FAF72D
:4055400067FD040000F05BF92000C0B2FAF764FD10BD38B5FAF75CFD040020210022DFF8E85A280000F09AFF20210022DFF8DC5A280000F093FF0020DFF83419087001206F
:40558000DFF8CC1A08700120DFF8C81A08700120DFF8C41A08700120DFF8C01A08705FF0FF30DFF8BC1A087001F01EFFDFF8B40A01F029FF00F036F800F07BF801F066FF96
:4055C000DFF8A40A007810F0FD00DFF89C1A0870DFF8940A0078DFF8941A0870DFF8880A007850F00200DFF8801A08700020DFF8801A08700020DFF8F01A0870012001F022
:405600006DFF0121DFF8C80B0078FEF792FC0121DFF8D80B0078FEF78CFC2000C0B2FAF7FBFC31BD80B54FF4804341F6FF720121012001F0A3FFDFF8981B0870FEF751FD00
:40564000DFF8A81A0870FEF74CFDDFF8A01A48700123DFF8980A42781F21DFF8900A0078FEF75AFD0023DFF8840A02780121DFF87C0A4078FEF750FD46F24B42DFF8CC19CA
:4056800089B2DFF8680A0078FEF768FD46F28B42DFF8D81989B2DFF8540A4078FEF75EFDDFF8480A0178DFF8280B0078FEF7CAFC01BD80B541F6FF734FF48042012101208C
:4056C00001F082FFDFF8241B0870FEF70AFDDFF8D41A08700623FE222021DFF8C80A0078FEF71AFDDFF8602992B246F25B41DFF8B40A0078FEF732FDDFF8A80A0178DFF838
:40570000EC0A0078FEF79EFC01BD10B5FAF780FC040001F0C8FE0421DFF8B40A0078FEF79DFC0421DFF8C40A0078FEF797FC0121DFF89C0A0078FEF7FCFB0121DFF8AC0A85
:405740000078FEF7F6FB01F0A1FE012001F0C6FEDFF81409007850F00200DFF80C1908702000C0B2FAF758FC10BD10B5FAF750FC040001F0BFFE01F0B4FE01F0CEFE012169
:40578000DFF8680A0078FEF7D4FB01F066FE012001F0A4FEDFF8D008007850F00200DFF8C81808705FF0FF30DFF8B41808702000C0B2FAF731FC10BD80B5FAF729FCDFF88B
:4057C000801A097811F0DF01DFF8742A1170DFF8841A097811F0EF01DFF8782A1170DFF8781A097811F0EF01DFF86C2A11700221DFF86C281170C0B2FAF70EFC01BD10B50E
:405800000120DFF8E41808700020DFF8F41B08701F21DFF8480A006800F053F80400DFF8E40B007801281BD1DFF8D80BC07FE4B2844202D100F059F832E0002001F0AEF8E9
:40584000DFF8BC0B007850F00800DFF8B41B0870DFF85C060078401CDFF8541608701FE0002001F09BF8DFF89C0BC07FE4B284420ED0DFF88C0B007850F00800DFF8801BAC
:405880000870DFF82C060078401CDFF824160870DFF86C0B007850F00400DFF8641B08700120DFF8041A096808701F21DFF8F809006800F006F8DFF8481B8877FFF77CFF1B
:4058C00010BD30B40022002309E000241D5CD2B222416A40DFF8304BD2B2125D5B1C8B42F3DB1000C0B230BC704780B50020DFF880170870DFF80C0B8078DFF8041B487050
:40590000DFF8000B4078002844D0012845D0022846D0032847D0042848D0052849D006284AD007284BD008284CD009284DD00A284ED00C2800F088800D2800F08880212829
:4059400049D022284AD023284BD024284CD025284DD040284ED041284FD0422850D0432851D0442852D0452853D0462854D0482855D0492856D0502857D0522858D05328B6
:4059800059D054285AD055285BD0F02862D0F12863D065E000F06DF86AE000F074F867E000F092F864E000F090F861E000F0A7F85EE000F0ABF85BE000F0D0F858E000F061
:4059C0000BF955E000F010F952E000F015F94FE000F019F94CE000F01DF949E000F0BFF946E000F0FDF943E000F028FA40E000F04BFA3DE000F05EFA3AE000F03BFB37E0BF
